:020000040800F2
:1000000000000220598A00088510000887100008A7
:10001000891000088B1000088D10000800000000F7
:100020000000000000000000000000003174000823
:100030008F10000800000000D17400089110000823
:10004000A98A0008A98A0008A98A0008A98A0008C4
:10005000A98A0008A98A0008A98A0008A98A0008B4
:10006000A98A0008A7100008A98A0008A98A000820
:10007000B1100008A98A0008A98A0008A98A000806
:10008000A98A0008A98A0008A98A0008A98A000884
:10009000C1100008A98A0008A98A0008A98A0008D6
:1000A000A98A0008A98A0008A98A0008A98A000864
:1000B000A98A0008A98A0008A98A0008A98A000854
:1000C000A98A0008A98A0008A98A0008A98A000844
:1000D000A98A0008D1100008A98A0008B92D0008D3
:1000E000A98A0008A98A0008A98A0008A98A000824
:1000F000A98A0008A98A0008A98A0008A98A000814
:10010000A98A0008A98A0008A98A0008A98A000803
:10011000A98A0008A98A0008A98A0008A98A0008F3
:10012000A98A0008A98A0008E1100008F110000857
:10013000A98A0008A98A0008A98A0008A98A0008D3
:1001400001110008A98A0008A98A0008A98A0008E4
:10015000111100082111000831110008393400087C
:10016000A98A0008A98A0008A98A0008A98A0008A3
:10017000A98A0008A98A0008A98A000800000000CE
:08018000A98A0008A98A000801
:1001900010B5054C237833B9044B13B10448AFF3C1
:1001A00000800123237010BDD0000020000000005B
:1001B000BC90000808B5034B1BB103490348AFF3DB
:1001C000008008BD00000000D4000020BC900008A2
:1001D00081F0004102E000BF83F0004330B54FEAF8
:1001E00041044FEA430594EA050F08BF90EA020F65
:1001F0001FBF54EA000C55EA020C7FEA645C7FEAF8
:10020000655C00F0E2804FEA5454D4EB5555B8BF1A
:100210006D420CDD2C4480EA020281EA030382EA8B
:10022000000083EA010180EA020281EA0303362D1D
:1002300088BF30BD11F0004F4FEA01314FF4801CF0
:100240004CEA113102D0404261EB410113F0004F02
:100250004FEA03334CEA133302D0524263EB4303B9
:1002600094EA050F00F0A780A4F10104D5F1200E57
:100270000DDB02FA0EFC22FA05F2801841F10001B2
:1002800003FA0EF2801843FA05F359410EE0A5F186
:1002900020050EF1200E012A03FA0EFC28BF4CF0B7
:1002A000020C43FA05F3C01851EBE37101F000456D
:1002B00007D54FF0000EDCF1000C7EEB00006EEB7A
:1002C0000101B1F5801F1BD3B1F5001F0CD3490804
:1002D0005FEA30004FEA3C0C04F101044FEA44525B
:1002E00012F5800F80F09A80BCF1004F08BF5FEAE2
:1002F000500C50F1000041EB045141EA050130BDC2
:100300005FEA4C0C404141EB0101013C28BFB1F5D3
:10031000801FE9D291F0000F04BF01460020B1FA1E
:1003200081F308BF2033A3F10B03B3F120020CDAF1
:100330000C3208DD02F1140CC2F10C0201FA0CF0CF
:1003400021FA02F10CE002F11402D8BFC2F1200C34
:1003500001FA02F120FA0CFCDCBF41EA0C019040EA
:10036000E41AA2BF01EB0451294330BD6FEA040433
:100370001F3C1CDA0C340EDC04F11404C4F120021E
:1003800020FA04F001FA02F340EA030021FA04F330
:1003900045EA030130BDC4F10C04C4F1200220FA87
:1003A00002F001FA04F340EA0300294630BD21FAC5
:1003B00004F0294630BD94F0000F83F4801306BF8B
:1003C00081F480110134013D4EE77FEA645C18BF7F
:1003D0007FEA655C29D094EA050F08BF90EA020F16
:1003E00005D054EA000C04BF1946104630BD91EA0E
:1003F000030F1EBF0021002030BD5FEA545C05D111
:100400004000494128BF41F0004130BD14F580044F
:100410003CBF01F5801130BD01F0004545F0FE41C3
:1004200041F470014FF0000030BD7FEA645C1ABFF8
:10043000194610467FEA655C1CBF0B46024650EA2F
:10044000013406BF52EA033591EA030F41F400215B
:1004500030BD00BF90F0000F04BF0021704730B5E1
:100460004FF4806404F132044FF000054FF00001B6
:1004700050E700BF90F0000F04BF0021704730B577
:100480004FF4806404F1320410F0004548BF40424C
:100490004FF000013EE700BF42004FEAE2014FEAA1
:1004A00031014FEA02701FBF12F07F4393F07F4F7C
:1004B00081F06051704732F07F4208BF704793F07F
:1004C0007F4F04BF41F40021704730B54FF4607492
:1004D00001F0004521F000411CE700BF50EA010295
:1004E00008BF704730B54FF000050AE050EA01023E
:1004F00008BF704730B511F0004502D5404261EBAE
:1005000041014FF4806404F132045FEA915C3FF4EE
:10051000D8AE4FF003025FEADC0C18BF03325FEA8B
:10052000DC0C18BF033202EBDC02C2F1200300FA3C
:1005300003FC20FA02F001FA03FE40EA0E0021FA61
:1005400002F11444BDE600BF70B54FF0FF0C4CF44F
:10055000E06C1CEA11541DBF1CEA135594EA0C0F01
:1005600095EA0C0F00F0DEF82C4481EA030621EA3C
:100570004C5123EA4C5350EA013518BF52EA033577
:1005800041F4801143F4801338D0A0FB02CE4FF029
:100590000005E1FB02E506F00042E0FB03E54FF059
:1005A0000006E1FB03569CF0000F18BF4EF0010E51
:1005B000A4F1FF04B6F5007F64F5407404D25FEA4D
:1005C0004E0E6D4146EB060642EAC62141EA555100
:1005D0004FEAC52040EA5E504FEACE2EB4F1FD0C42
:1005E00088BFBCF5E06F1ED8BEF1004F08BF5FEAC0
:1005F000500E50F1000041EB045170BD06F0004672
:1006000046EA010140EA020081EA0301B4EB5C041E
:10061000C2BFD4EB0C0541EA045170BD41F4801116
:100620004FF0000E013C00F3AB8014F1360FDEBF3B
:10063000002001F0004170BDC4F10004203C35DA17
:100640000C341BDC04F11404C4F1200500FA05F39A
:1006500020FA04F001FA05F240EA020001F000423B
:1006600021F0004110EBD37021FA04F642EB0601B1
:100670005EEA430E08BF20EAD37070BDC4F10C04DB
:10068000C4F1200500FA04F320FA05F001FA04F29F
:1006900040EA020001F0004110EBD37041F100018B
:1006A0005EEA430E08BF20EAD37070BDC4F1200596
:1006B00000FA05F24EEA020E20FA04F301FA05F2FE
:1006C00043EA020321FA04F001F0004121FA04F2A6
:1006D00020EA020000EBD3705EEA430E08BF20EA76
:1006E000D37070BD94F0000F0FD101F000464000B0
:1006F00041EB010111F4801F08BF013CF7D041EA32
:10070000060195F0000F18BF704703F00046520035
:1007100043EB030313F4801F08BF013DF7D043EA06
:100720000603704794EA0C0F0CEA135518BF95EABC
:100730000C0F0CD050EA410618BF52EA4306D1D143
:1007400081EA030101F000414FF0000070BD50EA62
:10075000410606BF1046194652EA430619D094EAEC
:100760000C0F02D150EA013613D195EA0C0F05D1D6
:1007700052EA03361CBF104619460AD181EA03012A
:1007800001F0004141F0FE4141F470014FF00000E2
:1007900070BD41F0FE4141F4780170BD70B54FF07D
:1007A000FF0C4CF4E06C1CEA11541DBF1CEA1355FD
:1007B00094EA0C0F95EA0C0F00F0A7F8A4EB0504DF
:1007C00081EA030E52EA03354FEA013100F08880D6
:1007D0004FEA03334FF0805545EA131343EA12639F
:1007E0004FEA022245EA111545EA10654FEA002654
:1007F0000EF000419D4208BF964244F1FD0404F50D
:10080000407402D25B084FEA3202B61A65EB030568
:100810005B084FEA32024FF480104FF4002CB6EB25
:10082000020E75EB030E22BFB61A754640EA0C00A5
:100830005B084FEA3202B6EB020E75EB030E22BFE5
:10084000B61A754640EA5C005B084FEA3202B6EB26
:10085000020E75EB030E22BFB61A754640EA9C00E5
:100860005B084FEA3202B6EB020E75EB030E22BFB5
:10087000B61A754640EADC0055EA060E18D04FEA73
:10088000051545EA16754FEA06164FEAC30343EA13
:1008900052734FEAC2025FEA1C1CC0D111F4801FE0
:1008A0000BD141EA00014FF000004FF0004CB6E7D9
:1008B00011F4801F04BF01430020B4F1FD0C88BF78
:1008C000BCF5E06F3FF6AFAEB5EB030C04BFB6EB83
:1008D000020C5FEA500C50F1000041EB045170BD76
:1008E0000EF0004E4EEA113114EB5C04C2BFD4EBA3
:1008F0000C0541EA045170BD41F480114FF0000E27
:10090000013C90E645EA060E8DE60CEA135594EAA2
:100910000C0F08BF95EA0C0F3FF43BAF94EA0C0FA5
:100920000AD150EA01347FF434AF95EA0C0F7FF41A
:1009300025AF104619462CE795EA0C0F06D152EA6E
:1009400003353FF4FDAE1046194622E750EA410652
:1009500018BF52EA43067FF4C5AE50EA41047FF463
:100960000DAF52EA43057FF4EBAE12E74FF0FF3CC8
:1009700006E000BF4FF0010C02E000BF4FF0010C99
:100980004DF804CD4FEA410C7FEA6C5C4FEA430C12
:1009900018BF7FEA6C5C1BD001B050EA410C0CBF61
:1009A00052EA430C91EA030F02BF90EA020F0020C3
:1009B000704710F1000F91EA030F58BF994208BF2A
:1009C00090422CBFD8176FEAE37040F001007047E7
:1009D0004FEA410C7FEA6C5C02D150EA013C07D13E
:1009E0004FEA430C7FEA6C5CD6D152EA033CD3D089
:1009F0005DF8040B704700BF8446104662468C4683
:100A00001946634600E000BF01B5FFF7B7FF0028B5
:100A100048BF10F1000F01BD4DF808EDFFF7F4FFDE
:100A20000CBF012000205DF808FB00BF4DF808ED69
:100A3000FFF7EAFF34BF012000205DF808FB00BF8C
:100A40004DF808EDFFF7E0FF94BF012000205DF8AE
:100A500008FB00BF4DF808EDFFF7CEFF94BF012063
:100A600000205DF808FB00BF4DF808EDFFF7C4FF5C
:100A700034BF012000205DF808FB00BF4FEA4102AF
:100A8000B2F1E04324BFB3F5001CDCF1FE5C0DD9EC
:100A900001F0004C4FEAC0024CEA5070B2F1004F36
:100AA00040EB830008BF20F00100704711F0804F39
:100AB00021D113F13872BCBF01F00040704741F4FE
:100AC00080114FEA5252C2F11802C2F1200C10FA02
:100AD0000CF320FA02F018BF40F001004FEAC123E6
:100AE0004FEAD32303FA0CFC40EA0C0023FA02F38A
:100AF0004FEA4303CCE77FEA625307D150EA013360
:100B00001EBF4FF0FE4040F44000704701F000402F
:100B100040F0FE4040F40000704700BF53B94AB9AE
:100B2000002908BF00281CBF4FF0FF314FF0FF30F5
:100B300000F074B9ADF1080C6DE904CE00F006F8D0
:100B4000DDF804E0DDE9022304B070472DE9F04749
:100B5000089D04468E46002B4DD18A42944669D9A1
:100B6000B2FA82F252B101FA02F3C2F1200120FA84
:100B700001F10CFA02FC41EA030E94404FEA1C48D2
:100B8000210CBEFBF8F61FFA8CF708FB16E341EACE
:100B9000034306FB07F199420AD91CEB030306F154
:100BA000FF3080F01F81994240F21C81023E634475
:100BB0005B1AA4B2B3FBF8F008FB103344EA034419
:100BC00000FB07F7A7420AD91CEB040400F1FF332E
:100BD00080F00A81A74240F207816444023840EA6B
:100BE0000640E41B00261DB1D4400023C5E90043A4
:100BF0003146BDE8F0878B4209D9002D00F0EF8027
:100C00000026C5E9000130463146BDE8F087B3FA59
:100C100083F6002E4AD18B4202D3824200F2F98041
:100C2000841A61EB030301209E46002DE0D0C5E944
:100C3000004EDDE702B9FFDEB2FA82F2002A40F090
:100C40009280A1EB0C014FEA1C471FFA8CFE012693
:100C5000200CB1FBF7F307FB131140EA01410EFB37
:100C600003F0884208D91CEB010103F1FF3802D2DE
:100C7000884200F2CB804346091AA4B2B1FBF7F0D8
:100C800007FB101144EA01440EFB00FEA64508D9FB
:100C90001CEB040400F1FF3102D2A64500F2BB8038
:100CA0000846A4EB0E0440EA03409CE7C6F1200787
:100CB000B34022FA07FC4CEA030C20FA07F401FACD
:100CC00006F31C43F9404FEA1C4900FA06F3B1FB56
:100CD000F9F8200C1FFA8CFE09FB181140EA0141BB
:100CE00008FB0EF0884202FA06F20BD91CEB010158
:100CF00008F1FF3A80F08880884240F28580A8F1B0
:100D000002086144091AA4B2B1FBF9F009FB101101
:100D100044EA014100FB0EFE8E4508D91CEB01019F
:100D200000F1FF346CD28E456AD90238614440EA42
:100D30000840A0FB0294A1EB0E01A142C846A646C2
:100D400056D353D05DB1B3EB080261EB0E0101FA4B
:100D500007F722FA06F3F1401F43C5E900710026A8
:100D60003146BDE8F087C2F12003D8400CFA02FCFE
:100D700021FA03F3914001434FEA1C471FFA8CFE0E
:100D8000B3FBF7F007FB10360B0C43EA064300FBFE
:100D90000EF69E4204FA02F408D91CEB030300F19C
:100DA000FF382FD29E422DD9023863449B1B89B253
:100DB000B3FBF7F607FB163341EA034106FB0EF3DC
:100DC0008B4208D91CEB010106F1FF3816D28B4289
:100DD00014D9023E6144C91A46EA004638E72E4655
:100DE000284605E70646E3E61846F8E64B45A9D24D
:100DF000B9EB020864EB0C0E0138A3E74646EAE7BC
:100E0000204694E74046D1E7D0467BE7023B614469
:100E100032E7304609E76444023842E7704700BFD2
:100E200072B6FEE700B595B03022002108A807F0A1
:100E30006FFE002303930493059306930793019396
:100E4000204A116C41F080511164126C02F0805202
:100E50000192019A02931C4B1A6842F480421A6074
:100E60001B6803F480430293029B012308934FF411
:100E70008033099302230E934FF480020F920622CF
:100E80001092A822119212930423139308A803F03E
:100E900021FF98B90F2303930223049300230593A2
:100EA0004FF4A05306934FF480530793052103A8F2
:100EB00004F05EF920B915B05DF804FBFFF7B0FF50
:100EC000FFF7AEFF003802400070004008B504F0A4
:100ED000DBFDFFF7A7FF00F01BF800F0C1FB00F0FF
:100EE00021FA00F045FB00F09BFE00F027FC00F02B
:100EF000C7FD00F0E5FD00F06BFA00F03DFC00F0EE
:100F000003FC00F049F900F0B5FA06F0D6F8FEE768
:100F10002DE9F0478CB000240794089409940A94B2
:100F20000B940094524B1A6B42F002021A631A6B34
:100F300002F002020092009A01941A6B42F0400201
:100F40001A631A6B02F040020192019A02941A6B22
:100F500042F001021A631A6B02F001020292029A35
:100F600003941A6B42F008021A631A6B02F008022B
:100F70000392039A04941A6B42F004021A631A6BE8
:100F800002F004020492049A05941A6B42F0800263
:100F90001A631A6B02F080020592059A06941A6B86
:100FA00042F020021A631B6B03F020030693069B9A
:100FB000DFF8C48001224021404604F0A1FADFF8A6
:100FC000BCA022464FF4E051504604F099FA294F54
:100FD00001221021384604F093FADFF8A490012290
:100FE0001146484604F08CFA4023079301250895E2
:100FF000099502260A9607A9404604F08FF94FF496
:10100000E0530793089509940A9407A9504604F001
:1010100085F9082307934FF404130893099507A94A
:10102000404604F07BF907954FF48813089309951F
:1010300007A9384604F072F910230793089509951B
:101040000A9607A9384604F069F9079508950995A5
:101050000A9607A9484604F061F9224605210920AD
:1010600004F092FC092004F0C7FC0CB0BDE8F08746
:10107000003802400000024000180240001C0240FC
:1010800000040240FEE7FEE7FEE7FEE7FEE77047EA
:1010900008B504F013FD05F077FD012800D108BD67
:1010A00006F048FAFBE708B5082004F031FA08BD5D
:1010B00008B5024804F068FB08BD00BF980900208D
:1010C00008B5024807F0A3FB08BD00BF880B00204D
:1010D00008B5024806F0AAFF08BD00BFB80A002004
:1010E00008B5024804F050FB08BD00BFD80B002033
:1010F00008B5024804F048FB08BD00BF380C0020CA
:1011000008B5024807F083FB08BD00BFB00B002004
:1011100008B5024804F038FB08BD00BFD80800201D
:1011200008B5024804F030FB08BD00BF580A002093
:1011300008B5024804F028FB08BD00BF38090020AC
:1011400000B583B0002200920D4B596C41F48041F0
:101150005964596C01F48041009100990192196C15
:1011600041F0805119641B6C03F080530193019B83
:101170000F216FF0010004F007FC03B05DF804FBE1
:1011800000380240034AD2F8883043F47003C2F8B2
:101190008830704700ED00E000B587B0002302936F
:1011A000039304930593009301931448144A026037
:1011B000436083604FF0FF32C2600361836103F0DC
:1011C00027FB90B94FF48053029302A90B4803F018
:1011D0002AFC68B90023009301936946074803F08D
:1011E00033FD40B907B05DF804FBFFF719FEE9E7EE
:1011F000FFF716FEEEE7FFF713FEF3E77C01002092
:10120000000C004084B00368184A934207D0184A83
:10121000934211D0174A93421BD004B07047002369
:101220000193154B1A6C42F004021A641B6C03F014
:1012300004030193019BF0E7002302930E4B1A6C09
:1012400042F008021A641B6C03F008030293029B2D
:10125000E3E700230393084B5A6C42F400325A64CC
:101260005B6C03F400330393039BD6E70008004054
:10127000000C0040004401400038024030B589B005
:1012800000230393049305930693079303681F4A6F
:10129000934204D01E4A934218D009B030BD0023B7
:1012A00001931C4B1A6B42F008021A631B6B03F08C
:1012B00008030193019B4FF480430393022304939B
:1012C000079303A9144804F029F8E6E700250295DE
:1012D000104B1A6B42F020021A631B6B03F02003C1
:1012E0000293029B40230393022304930323079357
:1012F00003A90A4804F012F8094C204603F0E4F967
:101300002946204603F01EFCC7E700BF0008004046
:101310000044014000380240000C0240001402402A
:10132000EC00002000B58FB000230A930B930C93C0
:101330000D930893099301930293039304930593E8
:10134000069307932048214A02604360836045F278
:101350000722C2600361836103F05AFA28BB4FF48D
:1013600080530A930AA9184803F05DFB00BB164896
:1013700003F07AFAF8B900230893099308A91248F0
:1013800003F062FCD0B9602301930023029303931E
:101390000593082201A90C4803F0CAFA88B90A4843
:1013A000FFF76CFF0FB05DF804FBFFF739FDD6E7E0
:1013B000FFF736FDDBE7FFF733FDDCE7FFF730FD36
:1013C000E1E7FFF72DFDEAE73401002000080040C7
:1013D00000B589B00023019302930393049305930E
:1013E000069307931548164A02604360836041F2F2
:1013F0008732C2600361836103F00AFAA0B90F4823
:1014000003F032FA98B9602301930022029203920A
:10141000059201A9094803F08BFA58B90748FFF76C
:101420002DFF09B05DF804FBFFF7FAFCE7E7FFF7D3
:10143000F7FCE8E7FFF7F4FCF0E700BFEC00002062
:1014400000440140034B0360034B0B608023136097
:10145000704700BFDC030020DC010020034B036069
:10146000034B0B604FF4807313607047300800200B
:101470003004002010B5AAB0364C0DF18C0CA646F5
:10148000BEE80F00ACE80F009EE807008CE80700FC
:10149000002123A805F016FE2F4B18600DF1700CEB
:1014A00004F11C0EBEE80F00ACE80F009EE8070038
:1014B0008CE8070000211CA805F004FE274B1860EB
:1014C0000DF1540C04F1380EBEE80F00ACE80F002B
:1014D0009EE807008CE80700002115A805F0F2FD42
:1014E0001F4B18600DF1380C04F1540EBEE80F00CC
:1014F000ACE80F009EE807008CE8070000210EA86A
:1015000005F0E0FD174B18600DF11C0C04F1700E96
:10151000BEE80F00ACE80F009EE807008CE807006B
:10152000002107A805F0CEFD0F4B1860EE4604F130
:101530008C0CBCE80F00AEE80F009CE807008EE8BA
:1015400007000021684605F0BDFD084B18602AB071
:1015500010BD00BFD4900008D4010020C8010020B5
:10156000CC010020D8010020D0010020C4010020BF
:1015700008B50B480B4B03600B4B436000238360A3
:10158000C3604FF48042026143618361C3610362BF
:1015900006F0B4F800B908BDFFF742FCFBE700BF56
:1015A00084080020005C0040801A06002DE9F0430A
:1015B00089B000230393049305930693079302686D
:1015C000234B9A4202D009B0BDE8F0830025009574
:1015D000204C236B43F004032363236B03F00403C9
:1015E0000093009B0195236B43F001032363236B5E
:1015F00003F001030193019B4FF4007303934FF039
:101600001209CDF810904FF00108CDF8148003278F
:1016100006970426079603A90F4803F07FFE4FF4B0
:1016200080730393CDF81090CDF814800697079639
:1016300003A90A4803F072FE0295236C43F40003E9
:101640002364236C03F400030293029BBBE700BFF7
:10165000005C0040003802400008024000000240E8
:1016600010B582B000240094264B1A6B42F400128D
:101670001A631A6B02F400120092009A01941A6B1A
:1016800042F480021A631B6B03F480030193019BF5
:10169000224605210C2004F077F90C2004F0ACF967
:1016A00022460521392004F06FF9392004F0A4F90D
:1016B000224605213A2004F067F93A2004F09CF90B
:1016C000224605213B2004F05FF93B2004F094F909
:1016D00022460521442004F057F9442004F08CF9F7
:1016E00022460521452004F04FF9452004F084F9F5
:1016F00022460521462004F047F9462004F07CF9F3
:1017000002B010BD0038024008B50A480A4B036019
:101710004FF4E133436000238360C36003610C2214
:1017200042618361C36106F0C7FB00B908BDFFF7E2
:1017300077FBFBE7B80A00200010014008B50B4812
:101740000B4B03600B4B436000238360C3604FF47B
:1017500080620261042242618361C36106F0ACFBD6
:1017600000B908BDFFF75CFBFBE700BFFC0A0020E7
:1017700000480040A086010008B50A480A4B0360F3
:101780004FF4E133436000238360C36003610C22A4
:1017900042618361C36106F08FFB00B908BDFFF7AA
:1017A0003FFBFBE7400B0020001401402DE9F04116
:1017B0008CB0044600230793089309930A930B9374
:1017C00003689D4A93420AD09C4A934200F0848069
:1017D0009B4A934200F0C9800CB0BDE8F08100251F
:1017E0000095984B5A6C42F010025A645A6C02F001
:1017F00010020092009A01951A6B42F002021A63DD
:101800001A6B02F002020192019A02951A6B42F0E1
:1018100001021A631B6B03F001030293029B8023F6
:1018200007934FF00208CDF8208003270A97072678
:101830000B9607A9844803F071FD4FF400730793DA
:10184000CDF8208009950A970B9607A97F4803F0E9
:1018500065FD7F487F4B03604FF00063436040238A
:101860008360C5604FF48063036145618561C56134
:101870004FF440330362456203F0C2FE30BB744B49
:1018800063639C637448754B03604FF0006343606F
:1018900000238360C3604FF480620261436183610F
:1018A0004FF48072C2614FF440320262436203F02F
:1018B000A7FE70B9684BA3639C6300220521252015
:1018C00004F062F8252004F097F885E7FFF7A8FAFE
:1018D000D5E7FFF7A5FAEDE700250395594B1A6CFC
:1018E00042F480221A641A6C02F480220392039A52
:1018F00004951A6B42F004021A631B6B03F0040395
:101900000493049B4FF4406307930223089303233B
:101910000A9307230B9307A9514803F0FFFC514892
:10192000514B03604FF0006343608560C5604FF426
:1019300080630361456185614FF48073C3614FF437
:1019400040330362456203F05BFE58B9454BA36325
:101950009C6300220521272004F016F8272004F0BC
:101960004BF839E7FFF75CFAF0E700250595354BB2
:101970005A6C42F020025A645A6C02F0200205921E
:10198000059A06951A6B42F040021A631B6B03F02E
:1019900040030693069B4FF4844307930223089366
:1019A00003230A9308230B9307A9304803F0B6FCDE
:1019B0002F48304B03604FF0206343608560C56063
:1019C0004FF480630361456185614FF48073C361A7
:1019D0004FF440330362456203F012FE28BB244BF0
:1019E000A3639C632448254B03604FF0206343604E
:1019F000402383600023C3604FF48062026143612F
:101A00008361C3614FF440320262436203F0F8FD28
:101A100070B9194B63639C6300220521472003F0D2
:101A2000B3FF472003F0E8FFD6E6FFF7F9F9D6E762
:101A3000FFF7F6F9EDE700BF001001400048004055
:101A4000001401400038024000040240000002403F
:101A500038090020B8640240D80800208864024099
:101A60000008024098090020286002400018024047
:101A7000F809002028640240580A0020A0640240AF
:101A800008B50D480D4B03600323436000238360BA
:101A9000C3604FF4102202614FF4001242610376DA
:101AA00043768376C3760377437706F0FFFB00B96E
:101AB00008BDFFF7B5F9FBE7880B00200064004084
:101AC00008B50D480D4B036003234360002383607A
:101AD000C3604FF4102202614FF40012426103769A
:101AE00043768376C3760377437706F0DFFB00B94E
:101AF00008BDFFF795F9FBE7B00B00200068004038
:101B000010B58AB0002305930693079308930993B1
:101B100003683D4A934204D03C4A934234D00AB011
:101B200010BD3B4A136801331360012B1FD0002402
:101B30000194384B1A6B42F008021A631B6B03F0D6
:101B400008030193019B0323059302220692089345
:101B50000923099305A9304803F0E0FB224605213B
:101B6000142003F011FF142003F046FFD7E70023F1
:101B70000093284B1A6C42F000721A641B6C03F03D
:101B800000730093009BD2E700230293214B1A6C51
:101B900042F080621A641B6C03F080630293029B24
:101BA0001B4A136801331360012B20D000240494D6
:101BB000184B1A6B42F002021A631B6B03F002030C
:101BC0000493049B60230593022306930323089345
:101BD0000923099305A9114803F0A0FB224605211A
:101BE000402003F0D1FE402003F006FF97E70023DA
:101BF0000393084B1A6C42F000721A641B6C03F0DA
:101C000000730393039BD1E7006400400068004029
:101C1000840B002000380240000C02400004024007
:101C200008B50F480F4B03604FF4827343600023E5
:101C30008360C36002220261012242614FF400729C
:101C400082613822C2610362436283620A23C362F3
:101C500005F0D0FE00B908BDFFF7E2F8FBE700BFD2
:101C6000980C0020003001402DE9F04389B000239A
:101C70000393049305930693079302683F4B9A429C
:101C800002D009B0BDE8F08304460025009503F5B5
:101C900084335A6C42F480525A645A6C02F4805273
:101CA0000092009A01951A6B42F002021A631A6BB5
:101CB00002F002020192019A02951A6B42F00102AF
:101CC0001A631B6B03F001030293029B1823039317
:101CD0004FF00209CDF810904FF00108CDF81480B4
:101CE000032706970526079603A9254803F016FB48
:101CF00080230393CDF81090CDF8148006970796B3
:101D000003A9204803F00AFB1F48204B03604FF053
:101D1000C06343608560C5604FF4806303614561C3
:101D20008561C5614FF440330362456203F068FC8E
:101D3000E8B9154BE3649C631548164B03604FF0FC
:101D4000C0634360402383600023C3604FF480621C
:101D5000026143618361C3614FF4003202624362F6
:101D600003F04EFC30B90A4BA3649C6389E7FFF78C
:101D700057F8DEE7FFF754F8F5E700BF0030014001
:101D80000004024000000240D80B002040640240E2
:101D9000380C00205864024010B44FF0E0235C6916
:101DA0004FF0A80C0CFB00FC9B69002104E0E01A3A
:101DB00002441144614509D21A464FF0E0239B6961
:101DC0009A42FAD0F3D9D21A1144F3E75DF8044BE2
:101DD000704710B504E04FF47A70FFF7DDFF20463E
:101DE000431E9CB20028F6D110BD000000B587B09C
:101DF0008DF80F004FF47A73009301230DF1170251
:101E00000DF10F01034805F054FE9DF8170007B0CF
:101E10005DF804FB980C002010B50C46FFF7E6FFB8
:101E20002046FFF7E3FF10BD70B500266AE0554C71
:101E300000221021204603F063FB8020FFF7D6FF2D
:101E40005520FFF7D3FF5520FFF7D0FF01221021C7
:101E5000204603F055FB9620FFF79EFF002210213D
:101E6000204603F04DFB8020FFF7C0FF5520FFF711
:101E7000BDFF5520FFF7BAFF01221021204603F0D5
:101E80003FFB9620FFF788FF00221021204603F039
:101E900037FBB6217E20FFF7BFFF0122102120462D
:101EA00003F02EFB5020FFF794FF00221021204664
:101EB00003F026FB8020FFF799FF5520FFF796FFE0
:101EC0005520FFF793FF01221021204603F018FB55
:101ED0009620FFF761FF00221021204603F010FB3F
:101EE0008020FFF783FF5520FFF780FF5520FFF785
:101EF0007DFF064601221021204603F001FB9620BB
:101F0000FFF74AFF1E2E92D1002537E01D4C00221C
:101F10001021204603F0F4FA1B4A05EB4503D118C3
:101F2000D65C49783046FFF777FF01221021204622
:101F300003F0E6FA9620FFF72FFF0022102120463B
:101F400003F0DEFA46F08000FFF750FF5520FFF760
:101F50004DFF5520FFF74AFF06460122102120467B
:101F600003F0CEFA9620FFF717FF05EB4502064B6C
:101F700013445B78B342C9D10135EDB2052DF4D9D4
:101F800070BD00BF00000240E091000810B50C4693
:101F900040F08000FFF72AFF5520FFF727FF207051
:101FA00010BD000070B582B000238DF8073059E0F5
:101FB0004B4C00220121204603F0A2FA0DF107014B
:101FC0000020FFF7E3FF01221146204603F098FAB4
:101FD0009620FFF7E1FE00220121204603F090FA4F
:101FE0000DF107010020FFF7D1FF01221146204625
:101FF00003F086FA9620FFF7CFFE0022012120464B
:1020000003F07EFAB6211420FFF706FF01221146E5
:10201000204603F075FA5020FFF7DBFE0022012175
:10202000204603F06DFA0DF107010020FFF7AEFF27
:1020300001221146204603F063FA9620FFF7ACFE1A
:1020400000220121204603F05BFA0DF10701002078
:10205000FFF79CFF01221146204603F051FA96201B
:10206000FFF79AFE9DF807300F2BA1D1002533E032
:102070001B4C00220121204603F042FA194A05EBCD
:102080004503D118D65C49783046FFF7C5FE0122DA
:102090001146204603F034FA9620FFF77DFE002219
:1020A0000121204603F02CFA0DF107013046FFF71D
:1020B0006DFF01221146204603F022FA9620FFF719
:1020C0006BFE05EB4502074B13445A789DF8073029
:1020D0009A42CDD10135EDB2052DF2D902B070BDD5
:1020E00000040240F491000808B5FFF79DFEFFF7D9
:1020F00059FF08BD38B50D46144640F08000FFF783
:1021000075FE06E05520FFF771FE05F8010B013C56
:10211000E4B2002CF6D138BD2DE9F04182B007467B
:102120000D461446644B93E803000090ADF804108C
:10213000090C8DF8061000268DF80760DFF8848101
:1021400032461021404603F0DBF99220FFF74EFEA5
:10215000062269461220FFF7CDFF012210214046DA
:1021600003F0CEF99DF801301B021BB29DF8002050
:10217000134307EE903AF8EEE77A504A92ED007A70
:1021800067EE877AC5ED007A9DF803301B021BB21B
:102190009DF802100B4307EE103AD2ED006AB8EE3C
:1021A000C77A27EE267A85ED017A9DF805301B0265
:1021B0001BB29DF80420134307EE903AF8EEE77A3D
:1021C00067EEA67AC5ED027A3D4D324601212846DA
:1021D00003F096F9082269463046FFF78BFF01228B
:1021E0001146284603F08CF99DF800300F2B2FD0B4
:1021F000344D00221021284603F082F9A220FFF777
:10220000F5FD022269462220FFF774FF012210210A
:10221000284603F075F99DF800209DF801305B0910
:1022200043EAC203B3F5806F01DBA3F5006307EE59
:10223000903AF8EEE77AB4EE007A67EE877AB3EE7A
:10224000077A77EE877AC4ED007A02B0BDE8F081B4
:102250009DF803301B021BB29DF80220134307EECA
:10226000903AF8EEE77A184A92ED007A67EE877AAC
:10227000C7ED007A9DF805301B021BB29DF80410D3
:102280000B4307EE103AD2ED006AB8EEC77A27EE9C
:10229000267A87ED017A9DF807301B021BB29DF864
:1022A0000620134307EE903AF8EEE77A67EEA67A37
:1022B000C7ED027A9CE700BF7C9100080400002073
:1022C00000040240000002400800002030B587B042
:1022D0000446154600910021019102910391049357
:1022E0000123694606F052F910B9002007B030BD4D
:1022F00002232A466946204606F048F90028F4D011
:1023000004232A466946204606F040F9EDE7B0F975
:1023100000300381B0F9023043810A784B7843EAF8
:10232000022303808B781B021BB2CA7813434380BD
:102330000B791B021BB24A79134383808B7983711B
:102340007047000038B59446BDF81040BDF814E061
:102350000B4A4FEA1C25157082F801C04FEA132C76
:1023600082F802C0D370230A137154714FEA1E23FE
:10237000937182F807E00823FFF7A8FF38BD00BF7C
:10238000DC0D0020F0B585B006460F4615461C460C
:10239000002302930393BDF92820ADF80820BDF96E
:1023A0002C20ADF80A20BDF93020ADF80C20BDF985
:1023B0003420ADF80E20284A137004E00EF1010E0F
:1023C000254B83F800E0244B93F800C0BCF1030FC9
:1023D0002DD80CEB4C0304EB8303B3F9023000EE71
:1023E000103A04AB03EB4C0333F9083C00EE903A8F
:1023F000F8EEE00AB8EEC00A342000FB0C5000F002
:102400003DF8154B93F800E0BDEEC00A10EE103A0F
:102410000FFA83FC114B23F81EC041F288339C4510
:10242000CCDD0E4B41F2883223F81E20C6E70B4963
:10243000B1F90020B1F90230B1F90400B1F9061088
:1024400089B2019180B200909BB292B23946304677
:10245000FFF778FF05B0F0BDD00D0020D40D0020AF
:1024600080ED000AC0ED010A80ED021AC0ED0B1AE2
:1024700080ED0A2A0023C3618361704780ED090A59
:10248000C0ED080AD0ED066AC0ED076A70EEC00A1A
:10249000C0ED060AD0ED007A60EEA77AC0ED037AAF
:1024A00090ED017A20EE877A90ED046A37EE067A95
:1024B00080ED047A70EEE60AD0ED026A60EEA60ABC
:1024C000C0ED050AD0ED0B6AB4EEE67AF1EE10FA33
:1024D00001DBC0ED046A90ED047AF1EE666AB4EEB9
:1024E000E67AF1EE10FA01D8C0ED046A90ED047AB4
:1024F00077EE877A70EEA70AC0ED0C0AD0ED0A7A63
:10250000F4EEE70AF1EE10FA01DBC0ED0C7A90ED83
:102510000C7AF1EE677AB4EEE77AF1EE10FA01D8B0
:10252000C0ED0C7A90ED0C0A70470000F6EE007AD0
:1025300060EE277A10EE103A074AA2EB630307EE2B
:10254000103A67EE277A67EE277AB7EE080A30EE80
:10255000670A27EE000A7047DF59375F10B52DED87
:10256000068B0446B0EE409AF0EE609AB0EE418AD7
:10257000F0EE618AB0EE42AAF0EE62AAF5EE401AE1
:10258000F1EE10FA0AD1B5EE402AF1EE10FA05D1BB
:10259000F5EE402AF1EE10FA00F0938068EEA87A8A
:1025A0002AEE0A0A77EE807A2AEEAA0A37EE800A25
:1025B000FFF7BCFF68EE808A2AEE00AA6AEE80AAC6
:1025C000D4ED011A94ED037A21EE872AD4ED007A36
:1025D000D4ED026A27EEA66A32EE462A61EEA71A09
:1025E00067EE266A71EEA61A67EEA77AF6EE006A23
:1025F00077EEE67A27EE077A77EE877A2AEE275A81
:102600002AEEA17A35EE475A6AEE82AA68EEA77AD8
:102610007AEEE7AA68EEA18A2AEE02AA78EECA8AC2
:10262000614BD3ED007AF5EEC07AF1EE10FA40F38B
:10263000B38093ED006A26EE056ADFED5C5A26EE64
:10264000256A5B49D1ED006A36EE866A81ED006A43
:1026500093ED006A26EE2A6A26EE256A554AD2EDE7
:10266000006A36EE866A82ED006AD3ED006A66EE95
:10267000A86A66EEA56A504B93ED006A76EE266A6C
:10268000C3ED006AD1ED007A39EE279AD2ED007AD7
:1026900079EEA79AD3ED007A38EE278A474B93ED6F
:1026A000007A27EE057A39EE079A93ED007A67EE05
:1026B0002AAA79EEAA9AD3ED007A67EEA88A38EEB4
:1026C000288A9FED3F1A29EE010A69EE810A28EE59
:1026D000011AD4ED006A94ED017AD4ED027A27EE66
:1026E000409A20EEA76A39EE469AD4ED039A29EE75
:1026F000816A39EE469A39EE269A84ED009A60EEA8
:10270000268A21EE276A78EE868A29EEA06A78EE7C
:10271000C68A78EE878AC4ED018A20EEA68A21EE69
:10272000076A38EE468A29EE806A38EE068A38EE65
:10273000278A84ED028A21EE261A60EE870A31EE9E
:10274000201A20EE270A31EE401A79EE819AC4ED64
:10275000039A69EE097A28EEA80A77EE807A28EEC5
:10276000080A77EE807A29EEA90A37EE800AFFF789
:10277000DDFE29EE009A84ED009A68EE808AC4EDB1
:10278000018A28EE008A84ED028A29EE801A84EDFF
:10279000031ABDEC068B10BD0023054A1360054AE1
:1027A0001360054A136079E7F00D00206F12833A39
:1027B000E40D0020E80D0020EC0D00200C000020AE
:1027C0006F12033A00000000F8B52DED028B0446AD
:1027D0000F4616461D46D0ED000A90ED030A20EE86
:1027E000800AD0ED017A90ED027A27EE877A30EEFA
:1027F000070A60EEA00A67EEA77A70EEA70A70EEED
:10280000A00AB7EE008A70EEC80A30EE000A06F0A1
:10281000B3F910EE100AFDF73FFE29A3D3E9002318
:10282000FDF792FEFEF72AF93860D4ED017A94EDB7
:10283000030A67EE807A94ED000A94ED027A20EEA6
:10284000070A77EEC07AB8EE000A27EE800A06F093
:1028500067F910EE100AFDF71FFE19A3D3E9002354
:10286000FDF772FEFEF70AF93060D4ED000A94ED30
:10287000010A20EE800A94ED027AD4ED037A27EE65
:10288000277A30EE070A60EEA00A67EEA77A70EEAC
:10289000A70A70EEA00A70EEC80A30EE000A06F031
:1028A0006BF910EE100AFDF7F7FD05A3D3E900233D
:1028B000FDF74AFEFEF7E2F82860BDEC028BF8BD9A
:1028C000AEB6627FD9A54C4010B58AB0044601ABC4
:1028D00003AA002105F0D8FE354B9C4204D0354BAD
:1028E0009C422ED00AB010BD039BA3F20123052BFE
:1028F000F8D801A252F823F0112900081B2900087A
:10290000252900082F290008E52800083929000892
:1029100001A92948FFF7FBFCE4E701A92748FFF7D5
:10292000F6FCDFE701A92648FFF7F1FCDAE701A989
:102930002448FFF7ECFCD5E701A92348FFF7E7FCA3
:10294000D0E7039BA3F20123042B08D8DFE803F0B0
:102950000314191E230001A91C48FFF7D8FC1B4AC9
:102960009389B2F914209B1AB3F5805F18DD184AD9
:102970001388013B1380B5E701A91648FFF7C7FC90
:10298000EDE701A91448FFF7C2FCE8E701A91348E5
:10299000FFF7BDFCE3E701A91148FFF7B8FCDEE74C
:1029A00013F5805F9EDA0A4A13880133138099E792
:1029B000880B0020B00B0020700D00207C0D002043
:1029C000880D0020940D0020AC0D0020F00C00209C
:1029D0007C200020FC0C0020080D0020140D00209D
:1029E000A00D002010B58AB00122089200230693A2
:1029F00007920093019302930393059304930E4C63
:102A00006946204605F0F8FC204605F091FD0221BC
:102A1000204605F0DEFE0E2309930593074C694618
:102A2000204605F0E9FC204605F082FD0221204603
:102A300005F0CFFE0AB010BD880B0020B00B0020BF
:102A400003460160501E084458609A600020D86018
:102A50001961596170472DE9F843EFF3108872B698
:102A6000002932D004460F46856875B3436946682D
:102A7000B34201D9036843619542A8BF1546606916
:102A8000361A0136B54211DC2A46394606F032F8CC
:102A900063692B446361A3685B1BA360E3682B44F9
:102AA000E36088F310882846BDE8F883A5EB0609A3
:102AB0003246394606F01EF84A46B919206806F033
:102AC00019F823684B446361E5E788F310884FF0F9
:102AD000FF35E8E70346EFF3108172B600695A68E4
:102AE000904201D91A681A611A6912F8010B1A6129
:102AF0009A6801329A60DA68013ADA6081F31088E4
:102B00007047C068704700285FD0034600295CD03A
:102B100030B590F800C042784CEA022CCCF30A0C95
:102B2000A1F800C042788078D20842EA4012C2F38D
:102B30000A0EA1F802E09A78D878920942EA800257
:102B4000187942EA8022C2F30A028A8018795C79F5
:102B5000400840EAC410C0F30A00C8805C79C4F39E
:102B600001148C725C79A409CC729C79DD7944EAF9
:102B700005248C811C7A5D7A44EA0524CC819C7AF8
:102B8000DD7A44EA05240C821C7B8C745C7BCC745B
:102B90009C7BDD7B44EA05248C821C7C5B7C44EAC4
:102BA00003231CB20B81ACF5806CA1F800C0AEF51C
:102BB000806EA1F802E0A2F580628A80A0F58060B4
:102BC000C880A4F580630B8130BD704710B4164BEC
:102BD0001B685C6944F040045C61DC6844F01004EC
:102BE000DC60124B1C68236823F00103236003E0C0
:102BF0001C6824F001041C600C4B1B681C6814F05A
:102C0000010FF5D10A4C9C60D86019615A601A68AE
:102C100042F480221A60054B1A68136843F00103DE
:102C200013605DF8044B7047FC0A002098090020EF
:102C30000448004008B5034824228118FFF7C6FF66
:102C400008BD00BF200E0020F8B504460568B5F9A0
:102C5000003003EB83039B008380B5F9023003EB64
:102C60008303DB00C380B5F90600FDF703FC4EA328
:102C7000D3E90023FDF792FD06460F46A068FDF755
:102C80000BFC32463B46FDF7A9FAFDF7F7FE07EECF
:102C9000900AA060B0EE007AF4EEC77AF1EE10FA76
:102CA00041DB84ED027AB5F90400FDF7E3FB002275
:102CB000394BFDF773FD06460F46E068FDF7ECFB68
:102CC00032463B46FDF78AFAFDF7D8FE07EE900A3A
:102CD000E0609FED327AF4EEC77AF1EE10FA2EDB67
:102CE0009FED2F7A77EEC77AC4ED037AAB7A022B89
:102CF00033D0032B35D0012B37D0637C022B06D881
:102D0000EB7A022B35D0032B36D0012B37D0B5F917
:102D1000083003F225239BB240F24A42934231D954
:102D20000123E374F8BDFDF7B7FB19A3D3E9002332
:102D3000FDF786FE0028B6D01A4BA360B3E79FEDDF
:102D4000177AF4EEC77AF1EE10FACFD59FED147A28
:102D500077EE877AC4ED037AC8E70023237463749F
:102D6000CBE7012323746374C7E7022323746374DE
:102D7000C3E70023A374CAE70123A374C7E70223B0
:102D8000A374C4E70023E374CCE700BFAFF3008073
:102D9000333333333333D33F001D0041000034431A
:102DA0000000B4439A99993E00000000001DF040D5
:102DB00000487047080E002000B583B02F4B1B68F9
:102DC0001A6812F0200F09D0002200921A680092AF
:102DD0005B680093009B03B05DF804FB284A12680F
:102DE00012F0100FF7D0002201921A6801925B686E
:102DF0000193019B234B1B681A6812F4002F1DD10D
:102E00001A6822F001021A601E4802685368C3F172
:102E100024039BB21C490B8024215160116841F4AA
:102E20000021116001680A6842F001020A60122B59
:102E3000D1D116491648FFF766FECCE71A6822F092
:102E400001021A600F4908684368C3F124030E4A5F
:102E50001380242343600F48836A23F40023836292
:102E600009680B6843F001030B601388122BB2D181
:102E700006490948FFF747FEADE700BFFC0A0020FE
:102E80000048004098090020680E0020080E00202D
:102E9000200E002000600240440E00200346104631
:102EA00005E013F8011B4140044A505C614601F102
:102EB000FF3C1FFA8CFC0029F3D1704708920008F0
:102EC00088B138B50C46054602290ED90139FF22D2
:102ED00089B2FFF7E3FF2C4414F8013C834214BF8E
:102EE0000020012038BD002070470020FAE70000D4
:102EF000034698B1481E99B110B413F8011B514014
:102F0000C9B2084C34F8111081EA12220146013886
:102F10000029F2D110465DF8044B70474FF6FF725E
:102F20001046704708930008D8B170B50C460646A5
:102F3000022918D98D1E0D4B1A882946FFF7D8FF94
:102F4000C2B2735D9A4201D0002070BDC0F30F2061
:102F5000344414F8013C984201D00020F5E70120E8
:102F6000F3E7002070470020EFE700BF10000020CB
:102F700030B4304B1B685C6944F040045C615C69B0
:102F800044F080045C61DC6844F01004DC602A4B8F
:102F90001C68236823F00103236003E01C6824F00D
:102FA00001041C60244B1B681C6814F0010FF5D150
:102FB000224CA34219D9583C4FF40065E560204CDF
:102FC0009C60D86019615A601A6842F480221A60C5
:102FD000194B1A68136843F001031360194B1A6800
:102FE000136823F00103136019E0174CA34205D9BD
:102FF00004F552744FF40065A560E0E7134CA3425A
:1030000004D9583C4FF40065E560D8E7104C4FF404
:103010000065A560D3E71A6822F001021A60094B27
:103020001B681A6812F0010FF5D1054A9A6030BC8E
:10303000704700BF400B0020F80900205864024090
:1030400004140140580A0020B86002405860024051
:103050000060024010B58446934B006818609CF8ED
:1030600004201A71BCF8053040F20E22934264D855
:10307000B3F5007F13D9A3F201230D2B67D8DFE846
:1030800013F07B0087009900A7006600B500BB0025
:10309000C900D000D900E300FD0003010D0140F29A
:1030A0000112934259D0B3F5817F10D3B3F5827FDB
:1030B00059D040F20512934249D17B4BBCF807101E
:1030C0009CF80920A3F8391083F83B203FE0022B3D
:1030D0003ED0032B21D1744BDCF80740DCF80B0009
:1030E000DCF80F10DCF81320C3F81240C3F8160008
:1030F000C3F81A10C3F81E20DCF81740DCF81B00D8
:10310000DCF81F10DCF82320C3F82240C3F82600A7
:10311000C3F82A10C3F82E2019E0012B17D1624BF7
:10312000DCF80700DCF80B10DCF80F20C3F8050012
:10313000C3F80910C3F80D2009E040F209329342A8
:1031400005D164220CF10701584805F0D3FC10BDED
:103150009CF80720544B5A74F9E7DCF80720524BCF
:10316000C3F83220F3E7504BBCF807109CF8092055
:10317000D98683F83820EAE74D4BDCF80700DCF805
:103180000B10DCF80F2007C39CF813201A70DEE741
:10319000454BDCF80740DCF80B00DCF80F10DCF8DE
:1031A0001320C3F84940C3F84D00C3F85110C3F8C9
:1031B0005520CCE73C4BDCF80700DCF80B10DCF8C2
:1031C0000F20C3F85900C3F85D10C3F86120BEE7B3
:1031D000354BDCF80720C3F86520BCF80B109CF8D1
:1031E0000D20A3F8691083F86B20B0E79CF8072046
:1031F0002D4B83F86C20AAE72B4BDCF80720C3F893
:103200006D20BCF80B109CF80D20A3F8711083F80A
:1032100073209CE7274BDCF80700DCF80B1003C396
:1032200095E7214BDCF80700D8679CF80B2083F862
:1032300080208CE71C4BDCF80720C3F88120BCF809
:103240000B20A3F8852082E70CF107031A4A0CF142
:103250002704D3F800C05868D3F808E0D968C2F84A
:1032600000C05060C2F808E0D16010331032A342B1
:10327000EFD119685B681160536068E7BCF80720FC
:10328000094BA3F8AF2062E7074BDCF80720C3F82F
:10329000B120BCF80B20A3F8B52058E79CF8072014
:1032A000014B83F8B7204CE76C0E0020240F002060
:1032B000A80E0020E00E0020F30E002008B520E04C
:1032C000A52806D0594B002283F8872083F8882050
:1032D00017E0564B012283F88620B3F88720511C53
:1032E000A3F88710134498710BE0504B9880B3F803
:1032F0008720511CA3F887101A449071022283F88A
:1033000086204B48FFF7FDFB002800F08E804848E0
:10331000FFF7E0FB454B93F88630052B7CD801A2E4
:1033200052F823F0C1320008EB3200083D330008A8
:103330007933000891330008D13300083B4B9A8859
:1033400042EA002292B29A80B3F8871001F1010C90
:10335000A3F887C00B449871762A04D8334B032214
:1033600083F88620CDE7314B002283F8862083F84E
:10337000872083F88820C4E72C4BB3F88720511CA2
:10338000A3F887101A449071042283F88620B8E7C6
:10339000264BB3F88720511C1FFA81FCA3F8871035
:1033A00013449871BCF1050FABD105212148FFF7FB
:1033B00087FD20B11D4B052283F88620A1E71B4B1A
:1033C000002283F8862083F8872083F8882098E7F6
:1033D000164AB2F88730918801F10902934206D269
:1033E000124A591CA2F887101344987189E7934236
:1033F00087D30E48002380F8863080F8873080F825
:10340000883009310630FFF78FFD00283FF479AF8F
:103410000848FFF71FFE74E7044B002283F886205C
:1034200083F8872083F888206BE708BDA41100206B
:103430008C0F0020AA11002000B583B02D4804F0A5
:10344000F5FD2D4B1B6813F0100F2ED000230193B8
:10345000284B1A681168019152680192019A9B6B7E
:103460001B681A6812F4002F22D11A6822F0010298
:103470001A60204B9A6B11684A68C2F5807292B24A
:103480001E4802804FF480704860996B086801689C
:1034900041F4002101609B6B19680B6843F0010344
:1034A0000B6017491748FFF7D6FA03B05DF804FB25
:1034B0001A6822F001021A600E4B9A6B11684A6872
:1034C000C2F5807292B20D4802804FF4807048605D
:1034D000996B0868016821F4002101609B6B1968F1
:1034E0000B6843F001030B6007490648FFF7B3FA86
:1034F000DBE700BF400B0020001401402E1200202B
:10350000301200208C0F00203013002008B505E099
:10351000D94B65221A70012003F009FE9FEDD7AA4E
:10352000DFEDD79AD74CB0EE4A2AF0EE691AB7EE23
:10353000001AF6EE040AB2EE000A2046FEF790FFEB
:10354000B0EE4A2AF0EE691AB7EE001AF6EE040A57
:10355000B2EE000A04F13400FEF782FFB0EE4A2A10
:10356000F0EE691AB7EE001AF6EE040AB2EE000A9F
:1035700004F16800FEF774FFB0EE4A2AF0EE691A13
:10358000B7EE001AF6EE040AB2EE000A04F19C004F
:10359000FEF766FF9FEDBC9ADFEDBC8ADFEDBCAAAB
:1035A0009FEDBC8ABC4CB0EE492AF0EE681AB0EE32
:1035B0006A1AF6EE000AB0EE480A2046FEF750FFFF
:1035C000B0EE492AF0EE681AB0EE6A1AF6EE000A7A
:1035D000B0EE480A04F13400FEF742FFB0EE492A8B
:1035E000F0EE681AB0EE6A1AF6EE000AB0EE480A7B
:1035F00004F16800FEF734FFB0EE492AF0EE681AD5
:10360000B0EE6A1AF6EE000AB0EE480A04F19C0029
:10361000FEF726FF9FEDA18ADFEDA1AAA14CB0EE37
:10362000492AF0EE691AB0EE481AF0EE480AB0EEF8
:103630006A0A2046FEF714FFB0EE492AF0EE691A36
:10364000B0EE481AF0EE480AB0EE6A0A04F134000F
:10365000FEF706FFB0EE492AF0EE691AB0EE481AFE
:10366000F0EE480AB0EE6A0A04F16800FEF7F8FED0
:10367000B0EE492AF0EE691AB0EE481AF0EE480AA8
:10368000B0EE6A0A04F19C00FEF7EAFE864CB0EE4A
:103690004A2AF0EE691AB7EE001AF6EE040AB2EE04
:1036A000000A2046FEF7DCFEB0EE4A2AF0EE691A68
:1036B000B7EE001AF6EE040AB2EE000A04F1340086
:1036C000FEF7CEFEB0EE4A2AF0EE691AB7EE001A07
:1036D000F6EE040AB2EE000A04F16800FEF7C0FE3E
:1036E000B0EE4A2AF0EE691AB7EE001AF6EE040AB6
:1036F000B2EE000A04F19C00FEF7B2FEDFED6BAA09
:103700006B4CB0EE492AF0EE681AB0EE481AF0EEB3
:10371000480AB0EE6A0A2046FEF7A2FEB0EE492A39
:10372000F0EE681AB0EE481AF0EE480AB0EE6A0AF7
:1037300004F13400FEF794FEB0EE492AF0EE681A68
:10374000B0EE481AF0EE480AB0EE6A0A04F16800DA
:10375000FEF786FEB0EE492AF0EE681AB0EE481A7F
:10376000F0EE480AB0EE6A0A04F19C00FEF778FE1B
:10377000504CB0EE4A2AF0EE691AB7EE001AF6EE97
:10378000040AB2EE000A2046FEF76AFEB0EE4A2AAC
:10379000F0EE691AB7EE001AF6EE040AB2EE000A6D
:1037A00004F13400FEF75CFEB0EE4A2AF0EE691A2E
:1037B000B7EE001AF6EE040AB2EE000A04F1680051
:1037C000FEF74EFEB0EE4A2AF0EE691AB7EE001A86
:1037D000F6EE040AB2EE000A04F19C00FEF740FE89
:1037E000354CB0EE492AF0EE681AB0EE481AF0EE09
:1037F000480AB0EE680A2046FEF732FEB0EE492ACB
:10380000F0EE681AB0EE481AF0EE480AB0EE680A18
:1038100004F13400FEF724FEB0EE492AF0EE681AF7
:10382000B0EE481AF0EE480AB0EE680A04F16800FB
:10383000FEF716FEB0EE492AF0EE681AB0EE481A0E
:10384000F0EE480AB0EE680A04F19C00FEF708FEAC
:10385000022003F06CFC084B1B78652B7FF45BAEF9
:10386000164B93F8483013F0040F7FF451AE024B1F
:1038700065221A704FE600BF1200002000D00446F7
:1038800000007A441019002000409C4500001643B7
:1038900000002A420000964240180020000000006C
:1038A000CDCC4C3E70170020001500200000F042E7
:1038B00030140020A0160020D01500206C0E00202F
:1038C00008B5FFF78FF84FF400720D490D48FFF768
:1038D000B7F80D494FF48072A1F58070FFF748FBEF
:1038E000FFF7A8F9FFF764FA084B18601846FFF7CE
:1038F000ABF9FFF7E3FC0A2003F019FCF2E700BF85
:10390000A40F00208C0F002030130020F40D0020A5
:1039100080B5FEF7E9FB314A31493248FEF7FCFB3E
:10392000314B4FF07E521A6012E0304B00221A6089
:103930002F4BC3ED007A2F4B93ED007A37EEC77A09
:103940002D4A82ED007AC3ED007A012003F0EFFBEF
:10395000224F234E234D3A4631462846FEF7DCFBE4
:10396000D6ED001A254CC4ED051A96ED012A84ED1A
:10397000062AD6ED022AC4ED072A95ED000A84ED49
:10398000080AD5ED010AC4ED090A95ED021A84ED85
:103990000A1A3B68E362144D2846FEF7DFFD04F186
:1039A000380304F1300204F134012846FEF70CFF1D
:1039B000D4ED0D7AF1EE677AC4ED0D7A94ED0C7AC0
:1039C000B1EE477A84ED0C7A084B1B6842F20F7215
:1039D0009342AADC0133054A1360B6E74C1A002073
:1039E000F41900203C1A0020E0190020F0190020F2
:1039F000501A0020481A0020541A0020001A0020F3
:103A000008B5012003F093FBFBE700002DE9F0432C
:103A10002DED068B85B09FEDCF8AB1EE0E2AF2EE2A
:103A2000041AB0EE481AF0EE480A9FEDCB0ACB48D4
:103A3000FEF716FDDFEDCA9AB2EE042AF0EE421A46
:103A40009FEDC81AF0EE480AB0EE690AC648FEF7C4
:103A500007FD9FEDC69ADFEDC68A9FEDC6AAC64C4C
:103A6000B0EE492AF0EE681AB0EE691AF0EE4A0A92
:103A7000B1EE020A2046FEF7F3FCB0EE492AF0EE62
:103A8000681AB0EE691AF0EE4A0AB1EE020A04F1C1
:103A90003400FEF7E5FC9FEDB9AADFEDB99AB0EE70
:103AA000492AF0EE681AB0EE4A1AF0EE480AB0EE73
:103AB000690A04F16800FEF7D3FCB0EE492AF0EE83
:103AC000681AB0EE4A1AF0EE480AB0EE690A04F13C
:103AD0009C00FEF7C5FCAB4CB0EE492AF0EE681A2C
:103AE000B0EE4A1AF0EE480AB0EE690A2046FEF738
:103AF000B7FCB0EE492AF0EE681AB0EE4A1AF0EEC2
:103B0000480AB0EE690A04F13400FEF7A9FCB0EEF1
:103B1000492AF0EE681AB0EE481AF0EE480AB6EEFE
:103B2000080A04F16800FEF79BFCB0EE492AF0EEAB
:103B3000681AB0EE481AF0EE480AB6EE080A04F128
:103B40009C00FEF78DFC9FED909ADFED908A904CE3
:103B5000B0EE492AF0EE681AB7EE001AF6EE040A43
:103B6000B2EE000A2046FEF77BFC9FED8A2ADFEDCD
:103B70008A1AB0EE481ADFED890AB3EE090A04F199
:103B80003400FEF76DFCB0EE492AF0EE681AB0EE94
:103B9000481AF0EE480AB7EE000A04F16800FEF792
:103BA0005FFCB0EE492AF0EE681AB7EE001AF6EEA6
:103BB000040AB2EE000A04F19C00FEF751FC30E06A
:103BC000774D002401940094234622464FF400715F
:103BD0002846FEF7B7FB019400942346224640F2A4
:103BE000FF112846FEF7AEFB6E4D0194009423466C
:103BF000224640F2FF112846FEF7A4FB01940094F0
:103C0000234622464FF400712846FEF79BFB664B85
:103C10005B7C002B3AD1654B01221A700A2003F01D
:103C200086FA624B1B78013B152BF7D801A252F89C
:103C300023F000BFC13B00081D3C00081D3C0008EC
:103C40001D3C00081D3C00081D3C00081D3C0008F0
:103C50001D3C00081D3C00089D3C00081D3C000860
:103C60001D3C00081D3C00081D3C00081D3C0008D0
:103C70001D3C00081D3C00081D3C00081D3C0008C0
:103C80001D3C0008C53D0008C13E0008013BDBB2F9
:103C9000012BC3D8454B0A221A70BFE7444C454E4E
:103CA000DFF8FC80B4F90C300393B4F908300293C8
:103CB000B4F904300193B4F90030009333463E4A1E
:103CC0004FF400714046FEF75DFB30363B4F002558
:103CD00003950295B4F914300193009533463A46A2
:103CE00040F2FF114046FEF74DFB0395029501950A
:103CF000B4F91030009333463A4640F2FF11294898
:103D0000FEF740FB284B5B7C1BB9284B01221A7045
:103D100084E75A1ED2B2012A80D8294A1268B2F525
:103D2000877F0FDB012B05D0022B07D0244B00220D
:103D30001A6073E71D4B15221A70F7E71B4B16220A
:103D40001A70F3E7194B0A21197001321C4B1A60E3
:103D500064E700BF000000009A99993E8C1A002089
:103D60003333333FCDCCCC3D581A00200060EA45B8
:103D700000007A460AD7A33C9C1B00208FC2753DE9
:103D8000CDCC4C403C1D002000D0044600007A44BD
:103D9000DC1E002000803B4600409C456F12833AA9
:103DA000880B0020B00B0020F40D00201300002031
:103DB00048000020700D0020CC1A00206C1C002050
:103DC000C81A0020624C634EDFF8AC91B4F90C3095
:103DD0000393B4F908300293B4F904300193B4F9B1
:103DE0000030009333465C4A4FF400714846FEF7BA
:103DF000C9FA06F13008594F002503950295B4F928
:103E000014300193009543463A4640F2FF1148466C
:103E1000FEF7B8FA039502950195B4F910300093B6
:103E200043463A4640F2FF114D48FEF7ABFAB6F969
:103E3000043041F24952934203DD4A490A68013293
:103E40000A60484A1268002A08DDB3F52F7F05DCB6
:103E5000454B01221A60434B00221A60424B1B68FB
:103E6000012B1AD0414B5B7CEBB9414B01221A70FC
:103E7000D4E6002A0CDB0133052B10DC344A52F85F
:103E80002320002AF5DD013A314941F82320F2E7E9
:103E900001322F4941F82320EDE70023ECE7324BB4
:103EA00000221A60DEE7012B06D0022B7FF4B6AEAB
:103EB0002F4B16221A70B1E62D4B15221A70ADE663
:103EC0002C4C244EDFF8B080B4F90C300393B4F9D5
:103ED00008300293B4F904300193B4F90030009330
:103EE00033461D4A4FF400714046FEF74BFA303618
:103EF0001A4F002503950295B4F9143001930095EB
:103F000033463A4640F2FF114046FEF73BFA03952E
:103F100002950195B4F91030009333463A4640F2C9
:103F2000FF110F48FEF72EFA104B5B7C1BB9104BAC
:103F300001221A7072E6012B06D0022B7FF46EAEBE
:103F40000B4B16221A7069E6094B15221A7065E6AA
:103F500018000020700D00209C1B00203C1D00203C
:103F6000B00B0020C01A0020C41A0020F40D00205D
:103F70001300002030000020880B002000B585B021
:103F8000DFEDE48ADFEDE49AB0EE682AF0EE691A1C
:103F9000B7EE001AF6EE040AB0EE080ADF48FEF7A4
:103FA0005FFA9FEDDF9A9FEDDFAA9FEDDF8ADF4C7E
:103FB000B0EE682AF0EE491AB0EE4A1AF0EE480A5E
:103FC000B1EE020A2046FEF74BFAB0EE682AF0EE98
:103FD000491AB0EE4A1AF0EE480AB1EE020A04F1AC
:103FE0003400FEF73DFADFEDD2AA9FEDD28A9FEDB5
:103FF000D2AAB0EE682AF0EE491AB0EE6A1AF0EED4
:10400000480AB0EE4A0A04F16800FEF729FAB0EE59
:10401000682AF0EE491AB0EE6A1AF0EE480AB0EEDD
:104020004A0A04F19C00FEF71BFAC44CB0EE682A61
:10403000F0EE491AB0EE6A1AF0EE480AB0EE4A0AFB
:104040002046FEF70DFAB0EE682AF0EE491AB0EEFF
:104050006A1AF0EE480AB0EE4A0A04F13400FEF79C
:10406000FFF9B0EE682AF0EE491AB0EE481AF0EE09
:10407000480AB6EE080A04F16800FEF7F1F9B0EE5E
:10408000682AF0EE491AB0EE481AF0EE480AB6EE89
:10409000080A04F19C00FEF7E3F9A94CB0EE682A87
:1040A000F0EE491AB0EE481AF0EE480AB6EE080AE9
:1040B0002046FEF7D5F9B0EE682AF0EE491AB0EEC8
:1040C000481AF0EE480AB6EE080A04F13400FEF78A
:1040D000C7F9B0EE682AF0EE491AB0EE481AF0EED1
:1040E000480AB6EE080A04F16800FEF7B9F9B0EE26
:1040F000682AF0EE491AB0EE481AF0EE480AB6EE19
:10410000080A04F19C00FEF7ABF98E4CB0EE682A69
:10411000F0EE491AB0EE481AF0EE480AB6EE080A78
:104120002046FEF79DF9B0EE682AF0EE491AB0EE8F
:10413000481AF0EE480AB6EE080A04F13400FEF719
:104140008FF9B0EE682AF0EE491AB0EE481AF0EE98
:10415000480AB6EE080A04F16800FEF781F9B0EEED
:10416000682AF0EE491AB0EE481AF0EE480AB6EEA8
:10417000080A04F19C00FEF773F9DFED738A734CB3
:10418000B0EE682AF0EE691AB7EE001AF6EE040AED
:10419000B2EE000A2046FEF763F99FED6D2ADFEDCF
:1041A0006D1AB0EE481ADFED6C0AB3EE090A04F19D
:1041B0003400FEF755F9B0EE682AF0EE691AB0EE59
:1041C000481AF0EE480AB7EE000A04F16800FEF75C
:1041D00047F9B0EE682AF0EE691AB7EE001AF6EE6B
:1041E000040AB2EE000A04F19C00FEF739F9DFED93
:1041F0005B9A9FED5B9ADFED5B8A5B4CB0EE692AC0
:10420000F0EE491AB0EE481AF0EE680AB3EE010A71
:104210002046FEF725F9B0EE692AF0EE491AB0EE15
:10422000481AF0EE680AB3EE010A04F13400FEF712
:1042300017F9B0EE692AF0EE491AB0EE481AF0EE1E
:10424000680AB3EE010A04F16800FEF709F9B0EE5E
:10425000692AF0EE491AB0EE481AF0EE680AB3EE99
:10426000010A04F19C00FEF7FBF812E00022019223
:10427000009213464FF400713C48FEF763F83C4B44
:104280009B7C002B3ED13B4B01221A700A2002F08E
:104290004EFF384B1B78013B172BF7D801A252F881
:1042A00023F000BF6D4200088D4200088D420008D7
:1042B0008D4200088D4200088D4200088D420008A2
:1042C0008D4200088D4200088D4200088D42000892
:1042D0008D4200088D4200088D4200088D42000882
:1042E0008D4200088D4200088D4200088D42000872
:1042F00079430008C74300081944000895440008A2
:10430000E7440008013BDBB2012BBFD8194B142254
:104310001A70BBE70060EA4500007A44AC1F002039
:1043200000007A463333333F0AD7A33C9C1B00205E
:104330008FC2753D00000000CDCC4C403C1D0020DC
:10434000CC1A00206C1C002000D00446DC1E00208B
:1043500000803B4600409C456F12833A00A00C460B
:104360000080BB450AD7233C0C1E0020B00B002068
:10437000F40D002014000020002201920092134648
:104380004FF400716648FDF7DDFF664B9B7C1BB95F
:10439000654B01221A7079E7013BDBB2012B3FF636
:1043A00075AF624B1B68C72B06DD5F4B15221A7079
:1043B0005E4B00221A6069E75B4A142111700133D9
:1043C0005A4A136062E70023039302934FF4E152C9
:1043D00001920093564B574A4FF400715048FDF735
:1043E000D1FF504B9B7C1BB94F4B01221A704DE7FC
:1043F000013BDBB2012B3FF649AF4F4BB3F9002035
:1044000040F60D039A4203DD474B16221A703DE732
:10441000454B15221A7039E7454C0023039302934C
:10442000464A019200932346424A4FF400713C48A9
:10443000FDF7A8FFA389B4F914209B1AB3F5805F98
:104440000ADD3D4A1388013B1380364B9B7C5BB9E8
:10445000354B01221A7019E713F5805FF5DA364AF9
:10446000138801331380F0E7013BDBB2012B3FF6E9
:104470000DAF314BB3F9003013F1310F06DA2A4B8F
:1044800017221A702C4B00221A80FFE6264B1622A8
:104490001A70FBE60023039341F64C5202920193FB
:1044A0000093234B234A4FF400711D48FDF76AFF28
:1044B0001C4B9B7C1BB91C4B01221A70E6E6013B8E
:1044C000DBB2012B3FF6E2AE194BB3F91C2041F2EF
:1044D000F8139A4203DD144B18221A70D6E6124BD9
:1044E00017221A70D2E600230393029301930093DC
:1044F0000F4B104A4FF400710948FDF743FF094B79
:104500009B7C1BB9084B01221A70BFE6013BDBB252
:10451000012B3FF6BBAE044B18221A70B6E600BF63
:10452000B00B0020F40D002014000020802000209B
:10453000F00C0020DC1E00207C200020E0E3FFFFC8
:1045400030B4036A23F001030362036A426884699A
:1045500024F073040D682C4323F0020C8B6843EAAB
:104560000C03104DA84203D005F58065A84205D183
:1045700023F00803CD682B4323F00403094DA84220
:1045800003D005F58065A84205D122F440724D693B
:104590002A438D692A43426084614A684263036208
:1045A00030BC70470000014030B4036A23F48073CC
:1045B0000362036A4268C46924F0730C0C6844EA1D
:1045C0000C0523F400738C6843EA0423114CA042C9
:1045D00003D004F58064A04206D123F40063CC68C4
:1045E00043EA042323F480630A4CA04203D004F579
:1045F0008064A04207D122F440524C6942EA04127E
:104600008C6942EA04124260C5614A68C26303626F
:1046100030BC70470000014030B4036A23F480537B
:104620000362036A4468C26922F4E6420D6842EA02
:10463000052223F400538D6843EA0533094DA8424F
:1046400003D005F58065A84204D124F480444D6967
:1046500044EA85144460C2614A680264036230BC63
:10466000704700BF0000014010B4036A046A24F0E0
:1046700001040462846924F0F00C4CEA021223F075
:104680000A030B43826103625DF8044B704710B468
:10469000046A24F0100404628469036A24F4704CF0
:1046A0004CEA023223F0A00343EA01138261036261
:1046B0005DF8044B7047836823F070030B4343F0AD
:1046C000070383607047000090F83D30DBB2012B98
:1046D00032D1022380F83D300368194A934220D03A
:1046E000B3F1804F1DD0A2F57C42934219D002F560
:1046F0008062934215D002F58062934211D002F598
:10470000784293420DD002F57052934209D0A2F53F
:104710009432934205D01A6842F001021A600020D8
:1047200070479A6802F00702062A07D01A6842F01A
:1047300001021A6000207047012070470020704776
:1047400000000140704700000368304A904212D0D8
:10475000B0F1804F0FD0A2F57C4290420BD002F511
:104760008062904207D002F58062904203D002F549
:104770007842904203D123F070034A681343234ADE
:1047800090422AD0B0F1804F27D0A2F57C429042CF
:1047900023D002F5806290421FD002F580629042E1
:1047A0001BD002F57842904217D002F57052904229
:1047B00013D002F5806290420FD002F580629042E1
:1047C0000BD0A2F59832904207D002F58062904259
:1047D00003D002F58062904203D123F44073CA688B
:1047E000134323F080034A69134303608B68C36259
:1047F0000B688362054B984203D003F580639842AF
:1048000001D10B690363012343617047000001403C
:1048100040B310B5044690F83D30F3B1022384F85C
:104820003D30214651F8040BFFF78EFF012384F839
:10483000463084F83E3084F83F3084F8403084F8C5
:10484000413084F8423084F8433084F8443084F8AE
:10485000453084F83D30002010BD80F83C30FCF736
:10486000D1FCDBE70120704740B310B5044690F857
:104870003D30F3B1022384F83D30214651F8040B5A
:10488000FFF762FF012384F8463084F83E3084F855
:104890003F3084F8403084F8413084F8423084F866
:1048A000433084F8443084F8453084F83D300020AB
:1048B00010BD80F83C30FFF745FFDBE70120704773
:1048C00030B4036A23F010030362036A4468826908
:1048D00022F4E6420D6842EA052223F020038D68A7
:1048E00043EA0513114DA84203D005F58065A8429F
:1048F00006D123F08003CD6843EA051323F040037B
:104900000A4DA84203D005F58065A84207D124F4DA
:1049100040644D6944EA85048D6944EA8504446035
:1049200082614A688263036230BC704700000140C4
:1049300038B590F83C30012B66D004460D46012373
:1049400080F83C300C2A5AD8DFE802F00759595950
:104950001B5959593059595944000068FFF7F0FD67
:104960002268936943F0080393612268936923F0F6
:10497000040393612268936929690B4393610020C2
:104980003EE00068FFF79CFF2268936943F40063F0
:1049900093612268936923F4806393612268936929
:1049A000296943EA01239361002029E00068FFF7A9
:1049B000FBFD2268D36943F00803D3612268D36901
:1049C00023F00403D3612268D36929690B43D361BF
:1049D000002015E00068FFF71FFE2268D36943F44A
:1049E0000063D3612268D36923F48063D3612268B2
:1049F000D369296943EA0123D361002000E0012043
:104A0000002384F83C3038BD0220FCE710B48468F1
:104A100024F47F4C42EA03220A4342EA0C028260F9
:104A20005DF8044B704790F83C30012B78D010B5FE
:104A30000446012380F83C30022380F83D300268B0
:104A4000936823F47F4323F0770393600B68602B14
:104A50004CD029D8402B54D00CD9502B22D1CA6825
:104A600049680068FFF700FE50212068FFF723FE29
:104A7000002005E0202B0DD009D9302B0AD00120D1
:104A8000012384F83D30002384F83C3010BD0BB185
:104A9000102B05D119462068FFF70DFE0020EFE727
:104AA0000120EDE70120EBE7B3F5805F34D0B3F5EB
:104AB000005F0CD1CB684A6889680068FFF7A6FFE1
:104AC0002268936843F4804393600020D8E7702BFA
:104AD00024D1CB684A6889680068FFF797FF22688D
:104AE000936843F0770393600020C9E7CA68496878
:104AF0000068FFF7CCFD60212068FFF7DCFD002097
:104B0000BEE7CA6849680068FFF7AEFD402120682B
:104B1000FFF7D1FD0020B3E70020B1E70120AFE7A8
:104B20000220704701F01F01012303FA01FC036A10
:104B300023EA0C030362036A02FA01F10B430362E6
:104B40007047000010B504460846002942D194F889
:104B50003E30DBB2013B18BF0123002B6ED1002891
:104B600051D1022384F83E30012201462068FFF72C
:104B7000D9FF2368334A934203D002F580629342FF
:104B800003D15A6C42F400425A6423682D4A93427E
:104B900049D0B3F1804F46D0A2F57C42934242D037
:104BA00002F5806293423ED002F5806293423AD091
:104BB00002F57842934236D002F57052934232D0D9
:104BC000A2F5943293422ED01A6842F001021A6084
:104BD000002032E0042908D008290DD094F8413093
:104BE000DBB2013B18BF0123B7E794F83F30DBB2DB
:104BF000013B18BF0123B0E794F84030DBB2013B22
:104C000018BF0123A9E7042805D0082807D00223EC
:104C100084F84130A8E7022384F83F30A4E7022358
:104C200084F84030A0E79A6802F00702062A07D00D
:104C30001A6842F001021A60002010BD0120FCE752
:104C40000020FAE70000014090F83C30012B3DD0F5
:104C500010B4012380F83C30022380F83D30036813
:104C60005A689C6822F0700C0A6842EA0C025A608A
:104C70000368174A93421AD0B3F1804F17D0A2F5B8
:104C80007C42934213D002F5806293420FD002F52A
:104C9000806293420BD002F57842934207D002F52E
:104CA0007052934203D0A2F59432934204D124F07F
:104CB00080044A6814439C60012380F83D3000233F
:104CC00080F83C3018465DF8044B7047022070476E
:104CD00000000140002800F0E08170B582B0044679
:104CE000036813F0010F3BD09F4B9B6803F00C034C
:104CF000042B2CD09C4B9B6803F00C03082B21D079
:104D00006368B3F5803F4FD0B3F5A02F52D0964BD8
:104D10001A6822F480321A601A6822F480221A601B
:104D20006368002B50D000F0D5FE05468E4B1B6803
:104D300013F4003F14D100F0CDFE401B6428F5D9D8
:104D40000320B1E1884B5B6813F4800FD8D0864B09
:104D50001B6813F4003F03D06368002B00F09F81B1
:104D6000236813F0020F54D07F4B9B6813F00C0F95
:104D70003ED07D4B9B6803F00C03082B33D0E368D7
:104D8000002B68D0794B01221A6000F0A3FE054683
:104D9000754B1B6813F0020F54D100F09BFE401BB3
:104DA0000228F5D903207FE16F4A136843F480336A
:104DB0001360B5E76C4B1A6842F480221A601A68D7
:104DC00042F480321A60ABE700F084FE0546664B81
:104DD0001B6813F4003FC3D000F07CFE401B642826
:104DE000F5D9032060E1604B5B6813F4800FC6D1F6
:104DF0005D4B1B6813F0020F03D0E368012B40F0FA
:104E00005081594A136823F0F803216943EAC1032A
:104E10001360236813F0080F42D063696BB3534BE0
:104E20000122C3F8802E00F055FE05464E4B5B6F05
:104E300013F0020F34D100F04DFE401B0228F5D9CB
:104E4000032031E1484A136823F0F803216943EA5B
:104E5000C1031360DDE7454B00221A6000F03AFE03
:104E60000546414B1B6813F0020FD2D000F032FE12
:104E7000401B0228F5D9032016E13C4B0022C3F861
:104E8000802E00F027FE0546374B5B6F13F0020FB4
:104E900006D000F01FFE401B0228F5D9032003E1D5
:104EA000236813F0040F77D02F4B1B6C13F0805F37
:104EB00033D1002301932C4B1A6C42F080521A64B8
:104EC0001B6C03F080530193019B0125284B1B6849
:104ED00013F4807F23D0A368012B34D0052B38D066
:104EE000214B1A6F22F001021A671A6F22F0040296
:104EF0001A67A368002B3DD000F0ECFD06461A4B64
:104F00001B6F13F0020F46D100F0E4FD801B41F24D
:104F100088339842F3D90320C6E00025D6E7144A27
:104F2000136843F48073136000F0D4FD0646104B01
:104F30001B6813F4807FCED100F0CCFD801B0228CB
:104F4000F5D90320B0E0084A136F43F0010313675B
:104F5000CFE7054B1A6F42F004021A671A6F42F04E
:104F600001021A67C5E700BF00380240000047424F
:104F70000070004000F0AEFD0646524B1B6F13F070
:104F8000020F08D000F0A6FD801B41F28833984242
:104F9000F3D9032088E0EDB9A369002B00F08380EA
:104FA000484A926802F00C02082A51D0022B17D00E
:104FB000454B00221A6600F08DFD0446414B1B68EC
:104FC00013F0007F42D000F085FD001B0228F5D9C8
:104FD000032069E03B4A136C23F080531364DBE742
:104FE000394B00221A6600F075FD0546354B1B68EB
:104FF00013F0007F06D000F06DFD401B0228F5D9AC
:10500000032051E0E369226A1343626A43EA821390
:10501000A26A5208013A43EA0243E26A43EA02639F
:10502000284A5360284B01221A6600F053FD0446BB
:10503000244B1B6813F0007F06D100F04BFD001BD2
:105040000228F5D903202FE000202DE000202BE0DE
:10505000012B2BD01B4B5B6803F48001E26991426A
:1050600026D103F03F02216A8A4223D1616A47F6C2
:10507000C0721A40B2EB811F1ED103F44031A26A04
:105080005208013AB1EB024F18D103F07063E26AA3
:10509000B3EB026F14D1002006E00120704701201D
:1050A00002E0012000E0002002B070BD0120FBE71B
:1050B0000120F9E70120F7E70120F5E70120F3E7F8
:1050C0000120F1E7003802400000474208B5254BB7
:1050D0009B6803F00C03042B3FD0082B3FD1214BDE
:1050E0005A6802F03F025B6813F4800F12D01D4B28
:1050F0005968C1F388111C480023A1FB0001FBF78C
:105100000DFD184B5B68C3F3014301335B00B0FB3B
:10511000F3F025E0134B5968C1F3881C4FEA4C119A
:10512000B1EB0C006EEB0E0E4FEA8E1343EA906368
:105130008101091A63EB0E03DB0043EA5173C900D6
:1051400011EB0C0C43F10003990200234FEA8C2071
:1051500041EA9C51FBF7E2FCD3E7034800E0034837
:1051600008BD00BF00380240001BB7000024F40057
:10517000002800F09B8070B50D4604464F4B1B681D
:1051800003F007038B4208D2CBB24C4A137013686A
:1051900003F007038B4240F08B80236813F0020F6B
:1051A00017D013F0040F04D0454A936843F4E0533A
:1051B0009360236813F0080F04D0414A936843F4C6
:1051C000604393603E4A936823F0F003A1680B4369
:1051D0009360236813F0010F32D06368012B21D054
:1051E0009A1E012A25D9364A126812F0020F61D0A0
:1051F00033498A6822F0030213438B6000F06AFC93
:1052000006462F4B9B6803F00C036268B3EB820FDA
:1052100016D000F05FFC801B41F288339842F0D931
:10522000032042E0264A126812F4003FE0D1012038
:105230003BE0234A126812F0007FD9D1012034E00C
:105240001E4B1B6803F00703AB4207D9EAB21B4BA6
:105250001A701B6803F00703AB422DD1236813F0CB
:10526000040F06D0164A936823F4E053E1680B4319
:105270009360236813F0080F07D0114A936823F452
:105280006043216943EAC1039360FFF71FFF0C4BA2
:105290009B68C3F303130B4AD35CD8400A4B1860D6
:1052A0000A4B186800F0CAFB002070BD012070474F
:1052B0000120FAE70120F8E70120F6E7003C024070
:1052C00000380240849100080000002064000020A3
:1052D000014B1868704700BF0000002008B5FFF7B9
:1052E000F7FF044B9B68C3F38223034AD35CD84087
:1052F00008BD00BF003802409491000808B5FFF7D0
:10530000E7FF044B9B68C3F34233034AD35CD840A6
:1053100008BD00BF003802409491000800230F2B05
:1053200000F2E48070B582B060E085685E0003241E
:10533000B44025EA0405CC68B4402C438460456839
:1053400025EA02054C68C4F300129A402A434260E1
:105350005AE0DC08083450F8246003F00702950096
:105360000F22AA4026EA020E0A69AA4042EA0E0269
:1053700040F824205CE0072200E0002202FA0EF24E
:105380002A4302345A4D45F824205A4A94686FEA59
:105390000C0224EA0C054E6816F4801F01D04CEA7A
:1053A0000405544CA560E46802EA04054E6816F44E
:1053B000001F01D04CEA04054E4CE560646802EA27
:1053C00004054E6816F4003F01D04CEA0405494C30
:1053D0006560246822404D6815F4803F01D04CEA96
:1053E0000402444C226001330F2B7DD801229A40E5
:1053F0000C6804EA020C32EA0404F4D14C6804F0AC
:105400000304013C012C90D94A6802F00302032AEC
:1054100009D0C4685D000322AA4024EA02048A6815
:10542000AA402243C2604A6802F00302022A90D0D6
:1054300004684FEA430E032202FA0EF224EA020441
:105440004A6802F0030202FA0EF2224302604A683E
:1054500012F4403FC7D000220192274A546C44F412
:1054600080445464526C02F480420192019A9C0878
:10547000A51C1F4A52F8255003F003024FEA820E82
:105480000F2202FA0EF225EA02051C4A90423FF46E
:1054900074AF02F5806290421AD002F580629042A9
:1054A00018D002F58062904216D002F580629042D8
:1054B00014D002F58062904212D002F580629042D0
:1054C00010D002F5806290423FF455AF082255E7B4
:1054D000012253E7022251E703224FE704224DE75E
:1054E00005224BE7062249E702B070BD704700BFB6
:1054F00000380140003C01400038024000000240FA
:105500000AB18161704709048161704770470000EA
:1055100008B5054B5B69034200D108BD024B5861D9
:10552000FFF7F4FFF9E700BF003C014010B4036847
:10553000D9B210390C4AA2FB014212090B4CA25CF1
:10554000C2655F2909D923F47F7323F00303043371
:105550008365806D5DF8044B704723F47F7323F0FF
:1055600003038365F5E700BFABAAAAAA0895000864
:10557000836A826992B9012B0AD0022B02D00BB147
:1055800000207047C36A13F0807F28D10020704745
:10559000C36AB3F1C07F24D000207047B2F5005F2A
:1055A00009D0022B25D9032B25D1C36A13F0807FA4
:1055B00023D100207047032B03D8DFE803F0140445
:1055C000140A00207047C36A13F0807F0DD10020B9
:1055D0007047C36AB3F1C07F09D000207047012033
:1055E000704701207047012070470120704701205B
:1055F000704701207047002070470120704700006D
:1056000070B5044600F066FA002C5BD00546022314
:1056100084F83530002384F834302268136823F08E
:105620000103136023681A6812F0010F0AD000F01A
:1056300051FA431B052BF5D920236365032084F819
:10564000350070BD1A68204810406168A2680A439E
:10565000E1680A4321690A4361690A43A1690A436F
:10566000E1690A43216A0A430243616A04291ED0A0
:105670001A602668756925F00705636A1D43042BC7
:1056800007D1A36A1D43E36A1BB12046FFF770FFF1
:1056900090B975612046FFF749FFE26D3F239340C3
:1056A000836000206065012384F83530C9E7E16A32
:1056B000206B01430A43DBE740236365012084F844
:1056C0003500BEE70120BCE73F8010F070B504460E
:1056D000866D00F0FFF994F83530DBB2022B06D06E
:1056E00080236365002384F83430012070BD0546B3
:1056F0002268136823F0160313602268536923F0AD
:1057000080035361236CE3B12268136823F008031C
:1057100013602268136823F00103136023681B6879
:1057200013F0010F11D000F0D5F9431B052BF5D96B
:1057300020236365032084F83500002384F8343087
:10574000D4E7A36C002BDFD1E3E7E26D3F23934066
:10575000B360012384F83530002084F83400C5E7B5
:1057600090F83530DBB2022B03D080234365012053
:105770007047052380F835300268136823F0010371
:105780001360002070470000F0B583B0044600238A
:105790000193724B1D68724BA3FB0535AD0A876DF3
:1057A0003E68C26D08239340334210D003681A68E4
:1057B00012F0040F0BD01A6822F004021A60C26DB6
:1057C00008239340BB60436D43F001034365E26DE2
:1057D00001239340334209D02268526912F0800FAE
:1057E00004D0BB60636D43F002036365E26D042384
:1057F0009340334209D02268126812F0020F04D09D
:10580000BB60636D43F004036365E26D1023934056
:10581000334224D02268126812F0080F1FD0BB60F8
:1058200023681A6812F4802F0DD01B6813F4002F20
:1058300004D1236C9BB12046984710E0A36C73B150
:10584000204698470BE01A6812F4807F03D11A684B
:1058500022F008021A60236C0BB120469847E26DD3
:1058600020239340334255D02268126812F0100F63
:1058700050D0BB6094F83530DBB2052B0ED02368D6
:105880001A6812F4802F33D01B6813F4002F2AD12A
:10589000636C002B3ED0204698473BE0226813689B
:1058A00023F0160313602268536923F080035361C9
:1058B000236CA3B12268136823F008031360E26D20
:1058C0003F239340BB60012384F83530002384F8E4
:1058D0003430236D002B3FD0204698473CE0A36C2A
:1058E000002BE7D1EBE7E36BA3B12046984711E02B
:1058F0001A6812F4807F09D11A6822F010021A6027
:10590000012384F83530002384F83430E36B0BB185
:1059100020469847636DFBB1636D13F0010F17D0FC
:10592000052384F835302268136823F001031360DF
:10593000019B01330193AB4204D823681B6813F029
:10594000010FF5D1012384F83530002384F8343079
:10595000E36C0BB12046984703B0F0BD0000002077
:10596000B5814E1B074AD36823F4E0631B041B0C6C
:10597000000200F4E060034343F0BF6343F40033EC
:10598000D360704700ED00E000B5194BDB68C3F34E
:105990000223C3F1070CBCF1040F28BF4FF0040C25
:1059A00003F1040EBEF1060F18D9033B4FF0FF3E82
:1059B0000EFA0CFC21EA0C0199400EFA03F322EADC
:1059C0000303194300280BDB0901C9B200F1604051
:1059D00000F5614080F800135DF804FB0023E5E763
:1059E00000F00F000901C9B2024B1954F4E700BFDF
:1059F00000ED00E014ED00E0002807DB00F01F02DE
:105A0000400901239340024A42F82030704700BF0A
:105A100000E100E00138B0F1807F0BD24FF0E023CD
:105A20005861054AF02182F823100020986107226E
:105A30001A6170470120704700ED00E010B5044680
:105A40000E4B18784FF47A73B3FBF0F30C4A1068DE
:105A5000B0FBF3F0FFF7DEFF68B90F2C01D901208E
:105A60000AE0002221464FF0FF30FFF78DFF054B83
:105A70001C60002000E0012010BD00BF600000207D
:105A8000000000206400002008B50B4B1A6842F4A7
:105A900000721A601A6842F480621A601A6842F44E
:105AA00080721A600320FFF75DFF0F20FFF7C6FF2B
:105AB000FBF746FB002008BD003C0240034A11688A
:105AC000034B1B780B441360704700BF84200020F9
:105AD00060000020014B1868704700BF8420002040
